:0100000001FE
:0100010001FD
:0100020001FC
:0100030001FB
:0100040003F8
:0100050003F7
:0100060001F8
:0100070003F5
:0100080007F0
:0100090007EF
:01000A0001F4
:01000B0007ED
:01000C0001F2
:01000D0001F1
:01000E0008E9
:01000F0002EE
:0100100007E8
:0100110001ED
:0100120003EA
:0100130001EB
:0100140008E3
:0100150002E8
:0100160002E7
:0100170007E1
:0100180001E6
:0100190004E2
:01001A0001E4
:01001B0001E3
:01001C0003E0
:01001D0002E0
:01001E0002DF
:01001F0002DE
:0100200004DB
:0100210008D6
:0100220001DC
:0100230003D9
:0100240007D4
:0100250007D3
:0100260003D6
:0100270001D7
:0100280001D6
:0100290007CF
:01002A0002D3
:01002B0002D2
:01002C0003D0
:01002D0001D1
:01002E0001D0
:01002F0004CC
:0100300008C7
:0100310001CD
:0100320008C5
:0100330003C9
:0100340007C4
:0100350004C6
:0100360002C7
:0100370002C6
:0100380003C4
:0100390002C4
:01003A0008BD
:01003B0001C3
:01003C0004BF
:01003D0007BB
:01003E0004BD
:01003F0007B9
:0100400002BD
:0100410003BB
:0100420001BC
:0100430001BB
:0100440003B8
:0100450002B8
:0100460004B5
:0100470008B0
:0100480003B4
:0100490003B3
:01004A0003B2
:01004B0003B1
:01004C0003B0
:01004D0003AF
:01004E0007AA
:01004F0001AF
:0100500003AC
:0100510003AB
:0100520003AA
:0100530003A9
:0100540003A8
:0100550003A7
:0100560003A6
:0100570003A5
:0100580002A5
:0100590004A2
:01005A00089D
:01005B0003A1
:01005C0001A2
:01005D00059D
:01005E00079A
:01005F00049C
:010060000897
:01006100029C
:01006200029B
:010063000795
:01006400019A
:010065000199
:010066000198
:010067000791
:010068000790
:010069000294
:01006A000293
:01006B000391
:01006C000192
:01006D00038F
:01006E000190
:01006F00048C
:010070000887
:01007100018D
:01007200018C
:01007300018B
:010074000883
:010075000288
:010076000287
:010077000286
:010078000285
:01007900077F
:01007A00077E
:01007B000183
:01007C000380
:01007D000280
:01007E00047D
:01007F000878
:01008000027D
:01008100047A
:01008200027B
:01008300027A
:010084000873
:010085000179
:010086000475
:010087000870
:010088000176
:010089000175
:01008A000174
:01008B00076D
:01008C000271
:01008D000270
:01008E00046D
:01008F000769
:01009000026D
:01009100026C
:01009200036A
:01009300016B
:01009400016A
:010095000466
:010096000861
:010097000266
:010098000364
:010099000363
:01009A000362
:01009B000361
:01009C000360
:01009D00035F
:01009E00035E
:01009F00035D
:0100A000035C
:0100A100025C
:0100A2000756
:0100A300015B
:0100A4000754
:0100A5000456
:0100A6000158
:0100A7000355
:0100A8000156
:0100A900084E
:0100AA000154
:0100AB000153
:0100AC000152
:0100AD00074B
:0100AE00024F
:0100AF00024E
:0100B0000748
:0100B100024C
:0100B200034A
:0100B300014B
:0100B4000447
:0100B5000842
:0100B6000148
:0100B7000147
:0100B8000146
:0100B9000343
:0100BA000144
:0100BB000143
:0100BC00073C
:0100BD00043E
:0100BE00023F
:0100BF000838
:0100C000023D
:0100C1000737
:0100C200013C
:0100C3000834
:0100C400013A
:0100C5000337
:0100C6000237
:0100C7000830
:0100C8000235
:0100C9000234
:0100CA000233
:0100CB000232
:0100CC000231
:0100CD000230
:0100CE00042D
:0100CF000828
:0100D000012E
:0100D1000727
:0100D2000429
:0100D3000824
:0100D400012A
:0100D5000327
:0100D6000128
:0100D7000127
:0100D8000720
:0100D9000224
:0100DA000223
:0100DB000222
:0100DC000320
:0100DD000121
:0100DE000120
:0100DF00011F
:0100E000041B
:0100E1000816
:0100E200011C
:0100E300011B
:0100E400011A
:0100E5000812
:0100E6000217
:0100E7000216
:0100E8000215
:0100E9000313
:0100EA00070E
:0100EB000410
:0100EC00070C
:0100ED00030F
:0100EE000110
:0100EF00010F
:0100F0000807
:0100F100020C
:0100F200020B
:0100F300020A
:0100F4000803
:0100F5000109
:0100F6000702
:0100F7000206
:0100F8000205
:0100F9000204
:0100FA0008FD
:0100FB000103
:0100FC0008FB
:0100FD000101
:0100FE000100
:0100FF0001FF
:0101000007F7
:0101010002FB
:0101020007F5
:0101030001FA
:0101040001F9
:0101050001F8
:0101060008F0
:0101070002F5
:0101080002F4
:0101090002F3
:01010A0007ED
:01010B0007EC
:01010C0001F1
:01010D0001F0
:01010E0001EF
:01010F0003EC
:0101100002EC
:0101110002EB
:0101120002EA
:0101130004E7
:0101140008E2
:0101150002E7
:0101160002E6
:0101170002E5
:0101180008DE
:0101190001E4
:01011A0001E3
:01011B0001E2
:01011C0001E1
:01011D0001E0
:01011E0001DF
:01011F0001DE
:0101200004DA
:0101210007D6
:0101220002DA
:0101230008D3
:0101240001D9
:0101250001D8
:0101260001D7
:0101270007D0
:0101280002D4
:0101290002D3
:01012A0008CC
:01012B0002D1
:01012C0002D0
:01012D0007CA
:01012E0001CF
:01012F0003CC
:0101300001CD
:0101310008C5
:0101320002CA
:0101330008C3
:0101340002C8
:0101350002C7
:0101360008C0
:0101370003C4
:0101380003C3
:0101390001C4
:01013A0001C3
:01013B0008BB
:01013C0002C0
:01013D0002BF
:01013E0003BD
:01013F0003BC
:0101400003BB
:0101410003BA
:0101420003B9
:0101430003B8
:0101440003B7
:0101450003B6
:0101460005B3
:0101470003B4
:0101480008AE
:0101490000B5
:01014A0000B4
:01014B0000B3
:01014C0000B2
:01014D0000B1
:01014E0000B0
:01014F0000AF
:0101500000AE
:0101510000AD
:0101520000AC
:0101530000AB
:0101540000AA
:0101550000A9
:0101560000A8
:0101570000A7
:0101580000A6
:0101590000A5
:01015A0000A4
:01015B0000A3
:01015C0000A2
:01015D0000A1
:01015E0000A0
:01015F00009F
:01016000009E
:01016100009D
:01016200009C
:01016300009B
:01016400009A
:010165000099
:010166000098
:010167000097
:010168000096
:010169000095
:01016A000094
:01016B000093
:01016C000092
:01016D000091
:01016E000090
:01016F00008F
:01017000008E
:01017100008D
:01017200008C
:01017300008B
:01017400008A
:010175000089
:010176000088
:010177000087
:010178000086
:010179000085
:01017A000084
:01017B000083
:01017C000082
:01017D000081
:01017E000080
:01017F00007F
:01018000007E
:01018100007D
:01018200007C
:01018300007B
:01018400007A
:010185000079
:010186000078
:010187000077
:010188000076
:010189000075
:01018A000074
:01018B000073
:01018C000072
:01018D000071
:01018E000070
:01018F00006F
:01019000006E
:01019100006D
:01019200006C
:01019300006B
:01019400006A
:010195000069
:010196000068
:010197000067
:010198000066
:010199000065
:01019A000064
:01019B000063
:01019C000062
:01019D000061
:01019E000060
:01019F00005F
:0101A000005E
:0101A100005D
:0101A200005C
:0101A300005B
:0101A400005A
:0101A5000059
:0101A6000058
:0101A7000057
:0101A8000056
:0101A9000055
:0101AA000054
:0101AB000053
:0101AC000052
:0101AD000051
:0101AE000050
:0101AF00004F
:0101B000004E
:0101B100004D
:0101B200004C
:0101B300004B
:0101B400004A
:0101B5000049
:0101B6000048
:0101B7000047
:0101B8000046
:0101B9000045
:0101BA000044
:0101BB000043
:0101BC000042
:0101BD000041
:0101BE000040
:0101BF00003F
:0101C000003E
:0101C100003D
:0101C200003C
:0101C300003B
:0101C400003A
:0101C5000039
:0101C6000038
:0101C7000037
:0101C8000036
:0101C9000035
:0101CA000034
:0101CB000033
:0101CC000032
:0101CD000031
:0101CE000030
:0101CF00002F
:0101D000002E
:0101D100002D
:0101D200002C
:0101D300002B
:0101D400002A
:0101D5000029
:0101D6000028
:0101D7000027
:0101D8000026
:0101D9000025
:0101DA000024
:0101DB000023
:0101DC000022
:0101DD000021
:0101DE000020
:0101DF00001F
:0101E000001E
:0101E100001D
:0101E200001C
:0101E300001B
:0101E400001A
:0101E5000019
:0101E6000018
:0101E7000017
:0101E8000016
:0101E9000015
:0101EA000014
:0101EB000013
:0101EC000012
:0101ED000011
:0101EE000010
:0101EF00000F
:0101F000000E
:0101F100000D
:0101F200000C
:0101F300000B
:0101F400000A
:0101F5000009
:0101F6000008
:0101F7000007
:0101F8000006
:0101F9000005
:0101FA000004
:0101FB000003
:0101FC000002
:0101FD000001
:0101FE000000
:0101FF0000FF
:0102000000FD
:0102010000FC
:0102020000FB
:0102030000FA
:0102040000F9
:0102050000F8
:0102060000F7
:0102070000F6
:0102080000F5
:0102090000F4
:01020A0000F3
:01020B0000F2
:01020C0000F1
:01020D0000F0
:01020E0000EF
:01020F0000EE
:0102100000ED
:0102110000EC
:0102120000EB
:0102130000EA
:0102140000E9
:0102150000E8
:0102160000E7
:0102170000E6
:0102180000E5
:0102190000E4
:01021A0000E3
:01021B0000E2
:01021C0000E1
:01021D0000E0
:01021E0000DF
:01021F0000DE
:0102200000DD
:0102210000DC
:0102220000DB
:0102230000DA
:0102240000D9
:0102250000D8
:0102260000D7
:0102270000D6
:0102280000D5
:0102290000D4
:01022A0000D3
:01022B0000D2
:01022C0000D1
:01022D0000D0
:01022E0000CF
:01022F0000CE
:0102300000CD
:0102310000CC
:0102320000CB
:0102330000CA
:0102340000C9
:0102350000C8
:0102360000C7
:0102370000C6
:0102380000C5
:0102390000C4
:01023A0000C3
:01023B0000C2
:01023C0000C1
:01023D0000C0
:01023E0000BF
:01023F0000BE
:0102400000BD
:0102410000BC
:0102420000BB
:0102430000BA
:0102440000B9
:0102450000B8
:0102460000B7
:0102470000B6
:0102480000B5
:0102490000B4
:01024A0000B3
:01024B0000B2
:01024C0000B1
:01024D0000B0
:01024E0000AF
:01024F0000AE
:0102500000AD
:0102510000AC
:0102520000AB
:0102530000AA
:0102540000A9
:0102550000A8
:0102560000A7
:0102570000A6
:0102580000A5
:0102590000A4
:01025A0000A3
:01025B0000A2
:01025C0000A1
:01025D0000A0
:01025E00009F
:01025F00009E
:01026000009D
:01026100009C
:01026200009B
:01026300009A
:010264000099
:010265000098
:010266000097
:010267000096
:010268000095
:010269000094
:01026A000093
:01026B000092
:01026C000091
:01026D000090
:01026E00008F
:01026F00008E
:01027000008D
:01027100008C
:01027200008B
:01027300008A
:010274000089
:010275000088
:010276000087
:010277000086
:010278000085
:010279000084
:01027A000083
:01027B000082
:01027C000081
:01027D000080
:01027E00007F
:01027F00007E
:01028000007D
:01028100007C
:01028200007B
:01028300007A
:010284000079
:010285000078
:010286000077
:010287000076
:010288000075
:010289000074
:01028A000073
:01028B000072
:01028C000071
:01028D000070
:01028E00006F
:01028F00006E
:01029000006D
:01029100006C
:01029200006B
:01029300006A
:010294000069
:010295000068
:010296000067
:010297000066
:010298000065
:010299000064
:01029A000063
:01029B000062
:01029C000061
:01029D000060
:01029E00005F
:01029F00005E
:0102A000005D
:0102A100005C
:0102A200005B
:0102A300005A
:0102A4000059
:0102A5000058
:0102A6000057
:0102A7000056
:0102A8000055
:0102A9000054
:0102AA000053
:0102AB000052
:0102AC000051
:0102AD000050
:0102AE00004F
:0102AF00004E
:0102B000004D
:0102B100004C
:0102B200004B
:0102B300004A
:0102B4000049
:0102B5000048
:0102B6000047
:0102B7000046
:0102B8000045
:0102B9000044
:0102BA000043
:0102BB000042
:0102BC000041
:0102BD000040
:0102BE00003F
:0102BF00003E
:0102C000003D
:0102C100003C
:0102C200003B
:0102C300003A
:0102C4000039
:0102C5000038
:0102C6000037
:0102C7000036
:0102C8000035
:0102C9000034
:0102CA000033
:0102CB000032
:0102CC000031
:0102CD000030
:0102CE00002F
:0102CF00002E
:0102D000002D
:0102D100002C
:0102D200002B
:0102D300002A
:0102D4000029
:0102D5000028
:0102D6000027
:0102D7000026
:0102D8000025
:0102D9000024
:0102DA000023
:0102DB000022
:0102DC000021
:0102DD000020
:0102DE00001F
:0102DF00001E
:0102E000001D
:0102E100001C
:0102E200001B
:0102E300001A
:0102E4000019
:0102E5000018
:0102E6000017
:0102E7000016
:0102E8000015
:0102E9000014
:0102EA000013
:0102EB000012
:0102EC000011
:0102ED000010
:0102EE00000F
:0102EF00000E
:0102F000000D
:0102F100000C
:0102F200000B
:0102F300000A
:0102F4000009
:0102F5000008
:0102F6000007
:0102F7000006
:0102F8000005
:0102F9000004
:0102FA000003
:0102FB000002
:0102FC000001
:0102FD000000
:0102FE0000FF
:0102FF0000FE
:0103000000FC
:0103010000FB
:0103020000FA
:0103030000F9
:0103040000F8
:0103050000F7
:0103060000F6
:0103070000F5
:0103080000F4
:0103090000F3
:01030A0000F2
:01030B0000F1
:01030C0000F0
:01030D0000EF
:01030E0000EE
:01030F0000ED
:0103100000EC
:0103110000EB
:0103120000EA
:0103130000E9
:0103140000E8
:0103150000E7
:0103160000E6
:0103170000E5
:0103180000E4
:0103190000E3
:01031A0000E2
:01031B0000E1
:01031C0000E0
:01031D0000DF
:01031E0000DE
:01031F0000DD
:0103200000DC
:0103210000DB
:0103220000DA
:0103230000D9
:0103240000D8
:0103250000D7
:0103260000D6
:0103270000D5
:0103280000D4
:0103290000D3
:01032A0000D2
:01032B0000D1
:01032C0000D0
:01032D0000CF
:01032E0000CE
:01032F0000CD
:0103300000CC
:0103310000CB
:0103320000CA
:0103330000C9
:0103340000C8
:0103350000C7
:0103360000C6
:0103370000C5
:0103380000C4
:0103390000C3
:01033A0000C2
:01033B0000C1
:01033C0000C0
:01033D0000BF
:01033E0000BE
:01033F0000BD
:0103400000BC
:0103410000BB
:0103420000BA
:0103430000B9
:0103440000B8
:0103450000B7
:0103460000B6
:0103470000B5
:0103480000B4
:0103490000B3
:01034A0000B2
:01034B0000B1
:01034C0000B0
:01034D0000AF
:01034E0000AE
:01034F0000AD
:0103500000AC
:0103510000AB
:0103520000AA
:0103530000A9
:0103540000A8
:0103550000A7
:0103560000A6
:0103570000A5
:0103580000A4
:0103590000A3
:01035A0000A2
:01035B0000A1
:01035C0000A0
:01035D00009F
:01035E00009E
:01035F00009D
:01036000009C
:01036100009B
:01036200009A
:010363000099
:010364000098
:010365000097
:010366000096
:010367000095
:010368000094
:010369000093
:01036A000092
:01036B000091
:01036C000090
:01036D00008F
:01036E00008E
:01036F00008D
:01037000008C
:01037100008B
:01037200008A
:010373000089
:010374000088
:010375000087
:010376000086
:010377000085
:010378000084
:010379000083
:01037A000082
:01037B000081
:01037C000080
:01037D00007F
:01037E00007E
:01037F00007D
:01038000007C
:01038100007B
:01038200007A
:010383000079
:010384000078
:010385000077
:010386000076
:010387000075
:010388000074
:010389000073
:01038A000072
:01038B000071
:01038C000070
:01038D00006F
:01038E00006E
:01038F00006D
:01039000006C
:01039100006B
:01039200006A
:010393000069
:010394000068
:010395000067
:010396000066
:010397000065
:010398000064
:010399000063
:01039A000062
:01039B000061
:01039C000060
:01039D00005F
:01039E00005E
:01039F00005D
:0103A000005C
:0103A100005B
:0103A200005A
:0103A3000059
:0103A4000058
:0103A5000057
:0103A6000056
:0103A7000055
:0103A8000054
:0103A9000053
:0103AA000052
:0103AB000051
:0103AC000050
:0103AD00004F
:0103AE00004E
:0103AF00004D
:0103B000004C
:0103B100004B
:0103B200004A
:0103B3000049
:0103B4000048
:0103B5000047
:0103B6000046
:0103B7000045
:0103B8000044
:0103B9000043
:0103BA000042
:0103BB000041
:0103BC000040
:0103BD00003F
:0103BE00003E
:0103BF00003D
:0103C000003C
:0103C100003B
:0103C200003A
:0103C3000039
:0103C4000038
:0103C5000037
:0103C6000036
:0103C7000035
:0103C8000034
:0103C9000033
:0103CA000032
:0103CB000031
:0103CC000030
:0103CD00002F
:0103CE00002E
:0103CF00002D
:0103D000002C
:0103D100002B
:0103D200002A
:0103D3000029
:0103D4000028
:0103D5000027
:0103D6000026
:0103D7000025
:0103D8000024
:0103D9000023
:0103DA000022
:0103DB000021
:0103DC000020
:0103DD00001F
:0103DE00001E
:0103DF00001D
:0103E000001C
:0103E100001B
:0103E200001A
:0103E3000019
:0103E4000018
:0103E5000017
:0103E6000016
:0103E7000015
:0103E8000014
:0103E9000013
:0103EA000012
:0103EB000011
:0103EC000010
:0103ED00000F
:0103EE00000E
:0103EF00000D
:0103F000000C
:0103F100000B
:0103F200000A
:0103F3000009
:0103F4000008
:0103F5000007
:0103F6000006
:0103F7000005
:0103F8000004
:0103F9000003
:0103FA000002
:0103FB000001
:0103FC000000
:0103FD0000FF
:0103FE0000FE
:0103FF0000FD
:00000001FF
